:02000002B0004C
:1040000000400B007A790C00000006001900050240
:084010000401A11800000000EA
:04401800A4500C00A4
:1040200081F0004102E000BF83F0004330B54FEA69
:1040300041044FEA430594EA050F08BF90EA020FD6
:104040001FBF54EA000C55EA020C7FEA645C7FEA69
:10405000655C00F0E2804FEA5454D4EB5555B8BF8C
:104060006D420CDD2C4480EA020281EA030382EAFD
:10407000000083EA010180EA020281EA0303362D8F
:1040800088BF30BD11F0004F4FEA01314FF4801C62
:104090004CEA113102D0404261EB410113F0004F74
:1040A0004FEA03334CEA133302D0524263EB43032B
:1040B00094EA050F00F0A780A4F10104D5F1200EC9
:1040C0000DDB02FA0EFC22FA05F2801841F1000124
:1040D00003FA0EF2801843FA05F359410EE0A5F1F8
:1040E00020050EF1200E012A03FA0EFC28BF4CF029
:1040F000020C43FA05F3C01851EBE37101F00045DF
:1041000007D54FF0000EDCF1000C7EEB00006EEBEB
:104110000101B1F5801F1BD3B1F5001F0CD3490875
:104120005FEA30004FEA3C0C04F101044FEA4452CC
:1041300012F5800F80F09A80BCF1004F08BF5FEA53
:10414000500C50F1000041EB045141EA050130BD33
:104150005FEA4C0C404141EB0101013C28BFB1F545
:10416000801FE9D291F0000F04BF01460020B1FA90
:1041700081F308BF2033A3F10B03B3F120020CDA63
:104180000C3208DD02F1140CC2F10C0201FA0CF041
:1041900021FA02F10CE002F11402D8BFC2F1200CA6
:1041A00001FA02F120FA0CFCDCBF41EA0C0190405C
:1041B000E41AA2BF01EB0451294330BD6FEA0404A5
:1041C0001F3C1CDA0C340EDC04F11404C4F1200290
:1041D00020FA04F001FA02F340EA030021FA04F3A2
:1041E00045EA030130BDC4F10C04C4F1200220FAF9
:1041F00002F001FA04F340EA0300294630BD21FA37
:1042000004F0294630BD94F0000F83F4801306BFFC
:1042100081F480110134013D4EE77FEA645C18BFF0
:104220007FEA655C29D094EA050F08BF90EA020F87
:1042300005D054EA000C04BF1946104630BD91EA7F
:10424000030F1EBF0021002030BD5FEA545C05D182
:104250004000494128BF41F0004130BD14F58004C1
:104260003CBF01F5801130BD01F0004545F0FE4135
:1042700041F470014FF0000030BD7FEA645C1ABF6A
:10428000194610467FEA655C1CBF0B46024650EAA1
:10429000013406BF52EA033591EA030F41F40021CD
:1042A00030BD00BF90F0000F04BF0021704730B553
:1042B0004FF4806404F132044FF000054FF0000128
:1042C00050E700BF90F0000F04BF0021704730B5E9
:1042D0004FF4806404F1320410F0004548BF4042BE
:1042E0004FF000013EE700BF42004FEAE2014FEA13
:1042F00031014FEA02701FBF12F07F4393F07F4FEE
:1043000081F06051704732F07F4208BF704793F0F0
:104310007F4F04BF41F40021704730B54FF4607403
:1043200001F0004521F000411CE700BF50EA010206
:1043300008BF704730B54FF000050AE050EA0102AF
:1043400008BF704730B511F0004502D5404261EB1F
:1043500041014FF4806404F132045FEA915C3FF460
:10436000D8AE4FF003025FEADC0C18BF03325FEAFD
:10437000DC0C18BF033202EBDC02C2F1200300FAAE
:1043800003FC20FA02F001FA03FE40EA0E0021FAD3
:1043900002F11444BDE600BF70B54FF0FF0C4CF4C1
:1043A000E06C1CEA11541DBF1CEA135594EA0C0F73
:1043B00095EA0C0F00F0DEF82C4481EA030621EAAE
:1043C0004C5123EA4C5350EA013518BF52EA0335E9
:1043D00041F4801143F4801338D0A0FB02CE4FF09B
:1043E0000005E1FB02E506F00042E0FB03E54FF0CB
:1043F0000006E1FB03569CF0000F18BF4EF0010EC3
:10440000A4F1FF04B6F5007F64F5407404D25FEABE
:104410004E0E6D4146EB060642EAC62141EA555171
:104420004FEAC52040EA5E504FEACE2EB4F1FD0CB3
:1044300088BFBCF5E06F1ED8BEF1004F08BF5FEA31
:10444000500E50F1000041EB045170BD06F00046E3
:1044500046EA010140EA020081EA0301B4EB5C0490
:10446000C2BFD4EB0C0541EA045170BD41F4801188
:104470004FF0000E013C00F3AB8014F1360FDEBFAD
:10448000002001F0004170BDC4F10004203C35DA89
:104490000C341BDC04F11404C4F1200500FA05F30C
:1044A00020FA04F001FA05F240EA020001F00042AD
:1044B00021F0004110EBD37021FA04F642EB060123
:1044C0005EEA430E08BF20EAD37070BDC4F10C044D
:1044D000C4F1200500FA04F320FA05F001FA04F211
:1044E00040EA020001F0004110EBD37041F10001FD
:1044F0005EEA430E08BF20EAD37070BDC4F1200508
:1045000000FA05F24EEA020E20FA04F301FA05F26F
:1045100043EA020321FA04F001F0004121FA04F217
:1045200020EA020000EBD3705EEA430E08BF20EAE7
:10453000D37070BD94F0000F0FD101F00046400021
:1045400041EB010111F4801F08BF013CF7D041EAA3
:10455000060195F0000F18BF704703F000465200A7
:1045600043EB030313F4801F08BF013DF7D043EA78
:104570000603704794EA0C0F0CEA135518BF95EA2E
:104580000C0F0CD050EA410618BF52EA4306D1D1B5
:1045900081EA030101F000414FF0000070BD50EAD4
:1045A000410606BF1046194652EA430619D094EA5E
:1045B0000C0F02D150EA013613D195EA0C0F05D148
:1045C00052EA03361CBF104619460AD181EA03019C
:1045D00001F0004141F0FE4141F470014FF0000054
:1045E00070BD41F0FE4141F4780170BD70B54FF0EF
:1045F000FF0C4CF4E06C1CEA11541DBF1CEA13556F
:1046000094EA0C0F95EA0C0F00F0A7F8A4EB050450
:1046100081EA030E52EA03354FEA013100F0888047
:104620004FEA03334FF0805545EA131343EA126310
:104630004FEA022245EA111545EA10654FEA0026C5
:104640000EF000419D4208BF964244F1FD0404F57E
:10465000407402D25B084FEA3202B61A65EB0305DA
:104660005B084FEA32024FF480104FF4002CB6EB97
:10467000020E75EB030E22BFB61A754640EA0C0017
:104680005B084FEA3202B6EB020E75EB030E22BF57
:10469000B61A754640EA5C005B084FEA3202B6EB98
:1046A000020E75EB030E22BFB61A754640EA9C0057
:1046B0005B084FEA3202B6EB020E75EB030E22BF27
:1046C000B61A754640EADC0055EA060E18D04FEAE5
:1046D000051545EA16754FEA06164FEAC30343EA85
:1046E00052734FEAC2025FEA1C1CC0D111F4801F52
:1046F0000BD141EA00014FF000004FF0004CB6E74B
:1047000011F4801F04BF01430020B4F1FD0C88BFE9
:10471000BCF5E06F3FF6AFAEB5EB030C04BFB6EBF4
:10472000020C5FEA500C50F1000041EB045170BDE7
:104730000EF0004E4EEA113114EB5C04C2BFD4EB14
:104740000C0541EA045170BD41F480114FF0000E98
:10475000013C90E645EA060E8DE60CEA135594EA14
:104760000C0F08BF95EA0C0F3FF43BAF94EA0C0F17
:104770000AD150EA01347FF434AF95EA0C0F7FF48C
:1047800025AF104619462CE795EA0C0F06D152EAE0
:1047900003353FF4FDAE1046194622E750EA4106C4
:1047A00018BF52EA43067FF4C5AE50EA41047FF4D5
:1047B0000DAF52EA43057FF4EBAE12E74FF0FF3C3A
:1047C00006E000BF4FF0010C02E000BF4FF0010C0B
:1047D0004DF804CD4FEA410C7FEA6C5C4FEA430C84
:1047E00018BF7FEA6C5C1BD001B050EA410C0CBFD3
:1047F00052EA430C91EA030F02BF90EA020F002035
:10480000704710F1000F91EA030F58BF994208BF9B
:1048100090422CBFD8176FEAE37040F00100704758
:104820004FEA410C7FEA6C5C02D150EA013C07D1AF
:104830004FEA430C7FEA6C5CD6D152EA033CD3D0FA
:104840005DF8040B704700BF8446104662468C46F4
:104850001946634600E000BF01B5FFF7B7FF002827
:1048600048BF10F1000F01BD4DF808EDFFF7F4FF50
:104870000CBF012000205DF808FB00BF4DF808EDDB
:10488000FFF7EAFF34BF012000205DF808FB00BFFE
:104890004DF808EDFFF7E0FF94BF012000205DF820
:1048A00008FB00BF4DF808EDFFF7CEFF94BF0120D5
:1048B00000205DF808FB00BF4DF808EDFFF7C4FFCE
:1048C00034BF012000205DF808FB00BF4FEA410C17
:1048D0007FEA6C5C02D150EA013C0AD14FEA430CFA
:1048E0007FEA6C5C02D152EA033C02D14FF0000037
:1048F00070474FF0010070474FEA410212F5001275
:1049000015D211D56FF47873B3EB625212D94FEA16
:10491000C12343F0004343EA505311F0004F23FA00
:1049200002F018BF404270474FF00000704750EA55
:10493000013005D111F0004008BF6FF00040704712
:104940004FF00000704700BF4A0011D212F500126C
:1049500011D20DD56FF47873B3EB62520ED44FEAD7
:10496000C12343F0004343EA505323FA02F0704757
:104970004FF00000704750EA013002D14FF0FF3095
:1049800070474FF0000070474FEA4102B2F1E04338
:1049900024BFB3F5001CDCF1FE5C0DD901F0004C26
:1049A0004FEAC0024CEA5070B2F1004F40EB830076
:1049B00008BF20F00100704711F0804F21D113F1A2
:1049C0003872BCBF01F00040704741F480114FEADB
:1049D0005252C2F11802C2F1200C10FA0CF320FA64
:1049E00002F018BF40F001004FEAC1234FEAD32381
:1049F00003FA0CFC40EA0C0023FA02F34FEA4303EB
:104A0000CCE77FEA625307D150EA01331EBF4FF073
:104A1000FE4040F44000704701F0004040F0FE408E
:104A200040F40000704700BF53B94AB9002908BFDD
:104A300000281CBF4FF0FF314FF0FF3000F092B95B
:104A4000ADF1080C6DE904CE00F024F8DDF804E0C7
:104A5000DDE9022304B07047D0B50C4B00220646B6
:104A60000F46FFF799FCFFF76FFF0446FFF71AFCAC
:104A7000074B0022FFF790FC02460B4630463946B2
:104A8000FFF7D2FAFFF760FF2146D0BD0000F03DEE
:104A90000000F0412DE9F047089D04468E46002BAA
:104AA0004DD18A42944669D9B2FA82F252B101FAE2
:104AB00002F3C2F1200120FA01F10CFA02FC41EAF2
:104AC000030E94404FEA1C48210CBEFBF8F61FFA77
:104AD0008CF708FB16E341EA034306FB07F1994212
:104AE0000AD91CEB030306F1FF3080F01F819942C5
:104AF00040F21C81023E63445B1AA4B2B3FBF8F09F
:104B000008FB103344EA034400FB07F7A7420AD925
:104B10001CEB040400F1FF3380F00A81A74240F24D
:104B200007816444023840EA0640E41B00261DB1B8
:104B3000D4400023C5E900433146BDE8F0878B42ED
:104B400009D9002D00F0EF800026C5E900013046AC
:104B50003146BDE8F087B3FA83F6002E4AD18B4286
:104B600002D3824200F2F980841A61EB0303012030
:104B70009E46002DE0D0C5E9004EDDE702B9FFDE1C
:104B8000B2FA82F2002A40F09280A1EB0C014FEAC7
:104B90001C471FFA8CFE0126200CB1FBF7F307FB24
:104BA000131140EA01410EFB03F0884208D91CEBC7
:104BB000010103F1FF3802D2884200F2CB80434664
:104BC000091AA4B2B1FBF7F007FB101144EA014443
:104BD0000EFB00FEA64508D91CEB040400F1FF31D2
:104BE00002D2A64500F2BB800846A4EB0E0440EAC0
:104BF00003409CE7C6F12007B34022FA07FC4CEAC9
:104C0000030C20FA07F401FA06F31C43F9404FEABB
:104C10001C4900FA06F3B1FBF9F8200C1FFA8CFED0
:104C200009FB181140EA014108FB0EF0884202FA24
:104C300006F20BD91CEB010108F1FF3A80F08880E5
:104C4000884240F28580A8F102086144091AA4B2A2
:104C5000B1FBF9F009FB101144EA014100FB0EFE23
:104C60008E4508D91CEB010100F1FF346CD28E4552
:104C70006AD90238614440EA0840A0FB0294A1EBE3
:104C80000E01A142C846A64656D353D05DB1B3EB40
:104C9000080261EB0E0101FA07F722FA06F3F14070
:104CA0001F43C5E9007100263146BDE8F087C2F117
:104CB0002003D8400CFA02FC21FA03F3914001438F
:104CC0004FEA1C471FFA8CFEB3FBF7F007FB1036C8
:104CD0000B0C43EA064300FB0EF69E4204FA02F474
:104CE00008D91CEB030300F1FF382FD29E422DD9C7
:104CF000023863449B1B89B2B3FBF7F607FB1633FC
:104D000041EA034106FB0EF38B4208D91CEB01017B
:104D100006F1FF3816D28B4214D9023E6144C91AFB
:104D200046EA004638E72E46284605E70646E3E60B
:104D30001846F8E64B45A9D2B9EB020864EB0C0E15
:104D40000138A3E74646EAE7204694E74046D1E724
:104D5000D0467BE7023B614432E7304609E76444D2
:104D6000023842E7704700BF10F8012B11F8013BF1
:104D7000012A28BF9A42F7D0D01A7047034613F889
:104D8000012B002AFBD1181A0138704709480A493B
:104D9000884208B505D0094A824202D0121A10F0A2
:104DA0000FF80748074A0021121A10F031F801489D
:104DB00008BD00BF90D303209C780C0028D40320AA
:104DC00028D40320F8DF032070B5074E074C0DF000
:104DD0005DF9A41BA4080025AC4200D170BD56F8B3
:104DE000043B98470135F7E718780C0070780C0001
:104DF00000F0E6B808B500F0F0F8BDE808400DF0A6
:104E0000FDB80AF0EBBF0AF0E9BF0AF0EFBF0000FF
:104E100000B58DB02C22002101A874460FF0F8FFD8
:104E2000054B0193054B029304947B46002101A896
:104E300003930AF0B1FEFEE72C000C00B8500C0002
:104E40007047704710B5012303748368044643B16B
:104E5000C0689847012363740020BDE810400AF041
:104E6000BBBC00680028F5D083680BB90EF0C6FD06
:104E7000C368EEE7012A02D1016000207047022AD0
:104E800004BF0B680360F8E7036818470A4B10B5C6
:104E9000044603600BF0E0FF21460CF02AFA0DF007
:104EA000FBFC0DF0EDFC2046044B40F8043B0CF0FD
:104EB000A9F8204610BD00BF0C510C00F4500C00A6
:104EC00010B50446FFF7E2FF20462421FFF79DFFBF
:104ED000204610BD10B58368044613B10322014675
:104EE0009847204610BD38B50568044635B12846B8
:104EF000FFF7F0FF10212846FFF787FF2046142117
:104F0000BDE83840FFF781BF2DE9F34104460E4666
:104F10001420164990461F460EF06CFD30B1002556
:104F2000C0E90055C0E9025505744574206098B188
:104F3000099B9DF82020C0E902873146CDE9000396
:104F40000B4B04300AF0E0FB30B923681B7C4BB9F3
:104F500001200AF091FBF8E720680023236008B1E4
:104F6000FFF7C1FF204602B0BDE8F08174750C0068
:104F7000454E0B0038B5064D2B683BB94420FFF772
:104F800040FF044608B101F065F92C60286838BD7F
:104F9000B4D603201FB5FFF7EDFF08490446684665
:104FA0000BF0E3FA6946204601F0B6FB68460BF0C9
:104FB00091FA04B0BDE810400BF020B9CD500C00C0
:104FC00008B50DF069FC4FF416510DF055FCFFF7D4
:104FD000D1FFBDE8084001F079BA08B5FFF7CAFF74
:104FE000BDE8084002F0FEBB70B5D0E900531426BE
:104FF000044606FB0356AE4204D028460BF06AFA7C
:105000001435F8E720680AF0F1FE204670BD8842AA
:10501000F8B504460D46164616D9904215D2A2F1AF
:105020001406751AA1F114072C44B7421CD02CB1F8
:10503000314620460BF0CBFA337C237430460BF01C
:1050400049FA143E143CF0E70ED0B5420CD02CB116
:10505000294620460BF0BBFA2B7C237428460BF024
:1050600039FA14351434F0E7F8BD2DE9F041002386
:10507000C0E9003383604F689F4204460E4623DD3B
:105080004FF0140808FB07F00AF0A8FE0546D8B157
:10509000D4E9001208FB0212FFF7B9FF20680AF0FA
:1050A000A5FE2560A760D6E9007308FB0378B84524
:1050B00008D0394628460BF0A4FA3B7C2B741437F1
:1050C0001435F4E7736863602046BDE8F0810000A2
:1050D00070B5002190B001200AF080FD364B374AB0
:1050E0009A600025C3E9005502200AF067FD01F02F
:1050F000E7F8CDE9035505950DF0CEFB03A906466B
:1051000006A82F4CFFF7B1FF06A909A8FFF7ADFFCE
:105110002C4B236009A90CA8FFF7A7FF0CAA1E219E
:10512000201D0CF0C9F90CA8FFF75EFF09A8FFF7D6
:105130005BFF254B2360266206A8FFF755FF234B34
:1051400023600DF0A9FB4FF416510DF095FB0BF009
:1051500083FE21460CF086F803A8FFF745FF1C4BA1
:105160000C931C4B1C4C0F931C4B0E931C4B23603D
:1051700002220CA9E560201DFFF77CFE0F9B236136
:105180000E9BE3600AF088FA164B18600420FFF7C4
:1051900038FE054648B109234FF40072CDE90032CC
:1051A0001149124A2346FFF7AFFE65610CA8FFF7CD
:1051B00091FE10B070BD00BF4CD403200000FFFF73
:1051C00028D40320F4500C00D8720C000C510C00B1
:1051D000954F0B00894E0B0058D40320754E0B00E1
:1051E000C0270900D4DF0320E3500C006D390C0008
:1051F0000EB400B58CB00DAA4FF0200C52F8041B71
:105200000392CDE900120023016804AA1E20CDE913
:1052100004C30AF0A9FC0CB05DF804EB03B07047BE
:1052200038B5064D2B683BB90520FFF7EAFD04466B
:1052300008B104F079FF2C60286838BDF0DA03204B
:10524000002202707047000010B50378044603BBCB
:10525000FFF7E6FF012105F0CFF84FF4FA600CF0FC
:10526000F3FC0EF03BFB4FF416510DF00FFE0EF069
:1052700035FB0146084809F06BFA074809F0F4FAD3
:10528000054809F049FA0123044905482370FFF74E
:10529000AFFF012010BD00BF74D403201C510C00CF
:1052A000D0DE032010B50378044683B1FFF7B8FFC2
:1052B000002105F029F9FFF7B3FF002105F012F9ED
:1052C000FFF7AEFF002105F097F8002323700120BF
:1052D00010BD00002DE9F0430B7891B00446002B7F
:1052E00054D02B4D2B7A23B92A4920460BF03DF997
:1052F00048E00AF0D1F9EB6BC01A42F21073984201
:10530000F2D805F1080009F097FC05F1080059EC06
:10531000108B09F0B5FC4946404657EC106BFFF77F
:1053200033FB062100EE100A04A80BF0E9F904A9EA
:1053300008A80BF066F9184908A80BF03BFA3946A3
:1053400005463046FFF720FB062100EE100A0CA8A8
:105350000BF0D6F90CA928460BF020FA0146684656
:105360000BF04FF90CA80BF0B5F808A80BF0B2F849
:1053700004A80BF0AFF8694620460BF028F9684600
:105380000BF0A8F8204611B0BDE8F0830149ADE765
:1053900074D4032064660C00DD5F0C0070B50B78DC
:1053A00088B0054663B3184C237A33B30AF074F916
:1053B000E36BC01A267A1549154BD4F8A021039047
:1053C000002E08BF0B46002184F8A110D4F8A810C5
:1053D0000092CDE90131D4F89821D4F8A4310D49D7
:1053E00004A80BF097FA04A928460BF0F0F804A8DB
:1053F0000BF070F8284608B070BD4FF0FF30D9E7C9
:1054000005490BF0B2F8F5E774D4032048510C00BD
:1054100044510C004B510C0083510C00F0B5204955
:10542000204889B0FFF7E4FE1F4968460BF09DF85D
:1054300000250EF053FA03681B699847B8B91B4F53
:10544000184E0024029BA34222461ED95034A34288
:10545000A8BF2346694604A80BF006FA3046049A12
:105460003946FFF7C5FE04A80BF034F8EAE70EF062
:1054700035FA03685B6998470135C1B268460BF09D
:1054800080F9B5F5FA7FD4D1D9E7094905482A460C
:10549000FFF7AEFE68460BF01DF809B0F0BD00BF87
:1054A0008B510C00D0DE03207F6F0C00E2610C00FA
:1054B000A0510C0037B50B780546CBB3224C94F8BD
:1054C0004030ABB394F8503093B3002304F1400064
:1054D000CDE9003309F01CFC1E30ADF8060004F1E4
:1054E000400009F021FC8DF8050004F1400009F0AE
:1054F00027FC8DF8040004F1500009F02BFC8DF816
:10550000020004F1500009F02FFC8DF8010004F1B5
:10551000500009F037FC8DF80000684606F094F85A
:1055200001460A2228460BF0CFF8284603B030BDCA
:105530000CF026FB10B10CF040FBF1E703492846C4
:105540000BF013F8F1E700BF74D403205B5E0C008E
:10555000014809F07FB900BF74D40320074B002233
:105560001A60074A136801331360064A136801334F
:105570001360054B01221A70704700BF64D60320E8
:105580006CD6032000F4032070D6032007B50190E9
:105590000EF00CFA01990DF01BFD0EF007FA0DF05C
:1055A00022FDB0FA80F0400903B05DF804FB4369C6
:1055B00013B183690C301847704713B500210446B6
:1055C00008460AF0B9F80023204601A901930AF021
:1055D000CBF8019C0CB101232371002101200AF0BA
:1055E000ABF82CB1236820469B68984700232371B1
:1055F00002B010BD38B5114C2368013323600DF0A3
:105600004BF90F490BF016FA0DF046F92468002CFF
:10561000054610DA2D210BF011FA61420A222846C4
:105620000BF02BFA28460BF010FABDE838400021A9
:1056300012200EF0E3B82146F0E700BF64D6032045
:10564000BB510C000EB403B503AB012153F8042B7E
:1056500001930BF030FA02B05DF804EB03B0704731
:1056600037B504468068C8B100256FF00043CDE926
:10567000003502212B462A460AF07EF8A06829460A
:105680000AF0B2F8237903F0FF0513B10AF044F8E9
:10569000F8E7A06829460AF05FF8A56003B030BDBE
:1056A00038B50546054B45F80C3B0446FFF7D8FFD7
:1056B0002846FFF70FFC204638BD00BFD0530C0032
:1056C00010B50446FFF7ECFF20461C21FFF79DFBB9
:1056D000204610BD00220270427070472DE9F04351
:1056E0007A4FDFF83482DFF834928BB0064601251A
:1056F0000DF0D2F80A232A463946FFF7A3FF0EF031
:1057000055F90DF073FC002850D10DF0C5F8704923
:105710000BF0A7F90EF04AF90DF020FC0EF046F957
:105720006C490DF017FCC8200CF08EFA0EF03EF913
:105730000DF05CFC002839D10DF0AEF866490BF095
:1057400090F901350B2DD3D10DF0A6F863490BF07C
:1057500088F90DF0A1F86249624D00240BF081F93F
:10576000614900944FF0FF33022212200DF094FAA9
:10577000A86830B1CDE9004423462246022109F051
:10578000FBFFA86840B100236FF00042CDE9002381
:1057900019461A4609F0F0FF0DF07EF853490BF058
:1057A00060F9012030700BB0BDE8F0830E20FFF7E8
:1057B000EDFE002853D10F20FFF7E8FE00285BD153
:1057C0000DF06AF84A490BF04CF9002398F80010E4
:1057D00099ED000A47481A4605F042FD04460028A4
:1057E0004CD10DF059F80546424805F0F3FA42490C
:1057F00002462846FFF726FF01220A23BFEE000AD1
:10580000CDE90442CDE90242CDE9004432213948D4
:1058100005F0AEFD0F220DF1270136488DF8274027
:1058200005F0DAFA0DF038F834490BF003F90DF011
:1058300033F89DF82710044610220BF01EF920467D
:105840000BF003F99DF82730352B04D10DF024F827
:105850002B490BF006F90DF01FF82A497CE70E22C0
:1058600011462448079205F0B3FA0DF015F8079A8F
:105870002549FFF7E7FEA8E70F22F1E70DF00CF846
:1058800022492A46FFF7DEFE0A2D3FF45AAF0DF0FB
:1058900003F81F490BF0E5F80EF088F80DF05EFBF9
:1058A0000EF084F80B490DF055FB64200CF0CCF998
:1058B000012D3FF446AF0CF0EFFF16490BF0D1F885
:1058C0004FF4FA600CF0C0F93BE700BFD0510C0078
:1058D000FA510C00A08601001E520C00F6520C007A
:1058E0002A530C0078D603205D550B0079530C0029
:1058F00039520C0094D6032070520C0098520C00C0
:105900004A530C006D530C0059520C00A5520C0068
:10591000C0520C00D7520C0090D3032094D3032024
:1059200010B504460348FFF79BFE002323700120B7
:1059300010BD00BF78D6032038B5194B1A7804463D
:105940002AB100221A7009F0A7FE164B1860164BF8
:105950001B68782B22DD637803BB0CF09DFF134995
:10596000134D0BF07EF80CF097FF12490BF079F80D
:1059700064200CF069F9FFF7F1FD2B683BB91420A6
:10598000FFF73FFA044608B100F0BEF82C60286823
:105990000222BDE838400C2100F0FAB838BD00BF43
:1059A00070D6032074D6032064D6032087530C00DE
:1059B000ACD60320AC530C00014B1868704700BFF5
:1059C00064D60320014B1868704700BF6CD60320D3
:1059D000014B1868704700BF00F40320014B1868A2
:1059E000704700BF74D603204170704770B50E2118
:1059F00088B0184805F0E7F9174B049304AC174B2F
:105A0000174A1A6094E8030003F10C0502AE86E819
:105A1000030095E8030084E8030096E8030085E8A6
:105A20000300104959619969079100220E491A71C2
:105A30009A6099610692CDE900224FF47A710B4A7F
:105A400003F1080009F080FE2046FFF743FA08B092
:105A500070BD00BF94D60320F5550B0078D6032007
:105A6000D0530C00754E0B00894E0B00BB550B003C
:105A700021B18B88834201D08968F9E708467047D5
:105A8000F8B5037D05460F463BB103680420D9688D
:105A9000FFF7EEFF064608B1C760F8BD0A491020BF
:105AA0000DF0A8FF044660B1102231460FF0B0F9A6
:105AB000064B23600423A3802B692C61C4E90237C1
:105AC000EBE72875E9E700BF74750C0010000300D0
:105AD00038B50446006928B185680C21FFF795F9AF
:105AE0002846F8E7204638BD38B5064D2B683BB947
:105AF0000420FFF786F9044608B102F051FA2C6041
:105B0000286838BD34D7032070B51D4E336804466D
:105B10003BB90520FFF775F9054608B104F004FB11
:105B200035603368174E236033683BB92020FFF798
:105B300068F9054608B103F029FD35603368124E57
:105B4000636033683BB96820FFF75BF9054608B12D
:105B500002F0E4FD35603368A3600C4EFFF7C4FF2C
:105B60003368E0603BB90120FFF74BF9054608B107
:105B7000FFF766FB356033682361204670BD00BFC8
:105B8000F0DA032088D7032078D7032070D40320CD
:105B9000F0B504468BB09F480D469F491646FFF767
:105BA00027FB64200CF050F82069FFF77BFBE068CE
:105BB00002F0FCF9606803F01DFE606804F04EF925
:105BC000606803F003FE2068012104F0E7FB206811
:105BD000002104F059FC2068002104F02DFCFFF79F
:105BE000C9F990F840308BB18C498A48FFF700FB27
:105BF000FFF7C0F98A49074604A80AF0B6FC384600
:105C000004A900F089FD04A80AF064FC64200CF0EB
:105C10001BF805AB04930023CDE90633102208934B
:105C20000123ADF814209E424FF003028DF824307A
:105C3000ADF816208DF8183057D0022E58D0002E0F
:105C400058D14FF47A71A5FB011504A8FFF718FF8E
:105C50009DF8243063B1049BD9680120FFF708FF49
:105C6000054600284AD08389122B45D1002383732F
:105C70009DF8243083B1049BD9680E20FFF7F8FE0D
:105C80000546002852D0037B042B4DD1C389012B3C
:105C900002D043F00103C381684604A90AF0B2FAB6
:105CA000009808B10AF0A2F8FFF764F990F84030C4
:105CB000002B62D05B495748FFF79AFA002009F0A1
:105CC00013FD42F210760546002009F00DFD401B41
:105CD00061F10001B04271F100033ED20AF04EF8CA
:105CE00000283AD10AF03AF8EEE74EF66021AAE72A
:105CF0004D49A8E74D49A8E78168AEE74C49102017
:105D00000DF078FE0646002800F08180102229461A
:105D10000FF07EF8474B33600123B380089BB360DC
:105D20001223B3810896A3E78168A6E740491420AF
:105D30000DF060FE0646002866D0142229460FF0BA
:105D400067F83C4B33600E23B380089BB360042399
:105D500033730123F38108969EE70AF00FF8FFF7EB
:105D600009F93549054668460AF0FFFB28466946A9
:105D700000F0D2FC68460AF0ADFB4FF47A700BF0ED
:105D800063FF0121206804F009FB2069FFF75CFA3A
:105D9000E06802F089FBFFF7A7FE02F045F9DFEDAE
:105DA000277A20EE270ABCEEC00A10EE103A9EB207
:105DB0000BF0E6FE08B10BF000FF0546FFF7DAF83E
:105DC0002A46314600F086FA606803F0FFFE6068FC
:105DD00003F048FE606803F01BFF41F288300BF0CF
:105DE00033FF0121206804F027FB41F288300BF0DB
:105DF0002BFF606804F006F8606803F061FC04A8FB
:105E0000FFF766FE0BB0F0BD8DF8245044E78DF827
:105E100024502DE7D0DE0320DC530C00F4530C009B
:105E200009540C0016540C0080EE3600002E93022C
:105E300074750C00100003002A540C0000007A4412
:105E400013B50B4C2178BFF35B8F11F001010BD11F
:105E5000204601910AF012F8019928B105480AF08C
:105E600073F820460AF012F8024802B010BD00BFD5
:105E7000A0D60320A4D60320F0B504468BB05B481F
:105E80000D465B491646FFF7B3F964200BF0DCFEC4
:105E9000A06802F063FCFFF7D3FF0AF085F8FFF774
:105EA000CFFF0AF06FF84FF4FA700BF0CDFE2069C7
:105EB000FFF7F8F9E06802F079F8606803F09AFCFF
:105EC0002068002104F06AFA2068002104F0DCFA5E
:105ED0000021206804F0B0FA64200BF0B5FE4549BB
:105EE0004248FFF785F9FFF745F890F840306BB16D
:105EF000FFF740F84049074604A80AF036FB384649
:105F000004A900F009FC04A80AF0E4FA64200BF0EC
:105F10009BFE05AB394A04930023CDE90523CDE967
:105F2000073301239E428DF824304FF0030305D040
:105F3000022E55D132498DF8183003E08DF8183013
:105F40004EF66021A5FB011504A8FFF799FD6846F0
:105F500004A90AF057F9009808B109F047FF294948
:105F60002248FFF745F9FFF705F890F840306BB18C
:105F7000FFF700F82449054668460AF0F6FA284675
:105F8000694600F0C9FB68460AF0A4FA64200BF0E9
:105F90005BFE606803F036FF0121206804F0FEF923
:105FA0002069FFF751F9E06802F07EFA606803F0BB
:105FB0000DFE606803F056FD606803F029FE41F2B3
:105FC00088300BF041FE0121206804F035FA41F2DF
:105FD00088300BF039FE04A8FFF77AFD0BB0F0BD56
:105FE0008DF818304FF47A71ACE700BFD0DE032093
:105FF00032540C0051540C006D540C00100003007E
:1060000080EE36007D540C0098540C00014B0122A8
:106010001A707047CDD60320014B01221A707047C9
:10602000CED60320014B01221A707047CCD6032034
:106030001FB51022002168460EF0EAFE0DF09EFC0E
:1060400010226946802009F03FFB05B05DF804FB93
:1060500070B50D4B86B01E780546144692B11046B9
:106060000591FEF78BFE05998DF8086000233C2210
:10607000CDE900320346224628460CF0CDF92846E9
:1060800006B070BD1046EFE7B0D6032070B50D4BDB
:1060900086B01E780546144692B110460591FEF76B
:1060A0006DFE05998DF8086000233C22CDE9003291
:1060B0000346224628460CF0AFF9284606B070BDCC
:1060C0001046EFE7B0D6032037B5044680680D468A
:1060D00030B10023CDE900331A46022109F04CFB10
:1060E000A06830B10023CDE900531A46194609F0E3
:1060F00043FB03B030BD0000F0B58C4600251449C9
:10610000057104468560016092E8030085B002AF26
:1061100004F10C0687E8030096E8030082E8030018
:1061200097E8030086E803009168A0696161D1687F
:106130009560D060A161CDE90035064A23466146ED
:1061400004F1080009F000FB204605B0F0BD00BFD7
:10615000D0530C00BB550B000EB400B58CB00DAA8B
:106160004FF0200C52F8041B0392CDE900120023DB
:10617000016804AA2820CDE904C309F0F5FC0CB09D
:106180005DF804EB03B0704738B5064D2B683BB99A
:106190000120FEF736FE044608B1FFF751F82C60E7
:1061A000286838BD70D4032038B5064D2B683BB93C
:1061B0006820FEF726FE044608B102F0AFFA2C6014
:1061C000286838BD78D7032038B5064D2B683BB911
:1061D0002020FEF716FE044608B103F0D7F92C6024
:1061E000286838BD88D7032038B5064D2B683BB9E1
:1061F0000220FEF706FE044608B1FFF76BFA2C609A
:10620000286838BD68D6032038B5064D2B683BB9E1
:106210001420FEF7F6FD044608B1FFF775FC2C606C
:10622000286838BDACD6032008B505490548FEF7F7
:10623000DFFF054A054906480BF0C4FF012008BDF1
:10624000AE540C00D0DE0320BA540C0059670B008A
:1062500099210C0070B50446FEF7E2FF2060FFF7BD
:10626000B3FF6060FFF7A0FFA060FFF73DFCE060B8
:10627000FFF78AFF104E2061FFF7B6FF33686061B9
:106280003BB91020FEF7BDFD054608B103F03EFE08
:1062900035603368A361094904F11C000AF065F90F
:1062A000064904F12C000AF060F90023E36301239E
:1062B00084F84030204670BDECDA032067660C009D
:1062C00008B502490248FEF793FF08BDBE540C0012
:1062D000D0DE032030B585B00D46144600211022D3
:1062E00068460EF095FD0DF049FB694610224020EE
:1062F00009F0E2F90A4B009AADF804509A420BBF3C
:10630000039B009301330123039302940DF036FBAA
:1063100010226946402009F0D7F905B030BD00BF12
:10632000454B415738B5046805467CB16368013B6D
:1063300063605BB9236820469B689847A368013B6C
:10634000A3601BB923682046DB689847284638BD00
:106350002DE9F04389B0FFF7C7FB03781BB9FFF7BE
:10636000C3FB01F043FEFFF7BFFB01F05DFE10EE43
:10637000107AFFF7B9FB01F023FF142806460BDC67
:1063800009F0FCFC58B10BF0FBFBDFF83481D0B90D
:10639000D8F80030DBB102E0182800F381803846DD
:1063A000FDF7A2FF47A3D3E9002304460D46FEF7FD
:1063B00065FA28B13C493D4822462B46FFF7CCFE02
:1063C00009B0BDE8F083D8F80030002B57D107EEB4
:1063D000107ADFED377A67EE277AFCEEE77A17EE70
:1063E000903A9DB20BF0CCFB0446002850D110220D
:1063F00000210DEB02000EF00BFD0DF0BFFA102294
:106400000DEB0201802009F057F92A4B049AADF8F0
:1064100014509A420BBF079B0493013301231FFAC8
:1064200086F90793ADF8169006940DF0A7FA10229E
:106430000DEB0201802009F047F909F09FFCB0B193
:106440003846FDF751FF3246CDE900011A4904A84C
:106450000AF060FA049A194902A8FFF7F9FD03A8A7
:10646000FFF760FFFFF7E4FD04A80AF033F80BF034
:1064700087FB88B10BF0A1FBC8F800008FE70BF099
:106480009CFBD8F80030C01AB0F5615F9FD286E758
:106490000BF093FB0446AAE70123C8F800307EE71F
:1064A000074B00221A607AE7F2540C00D0DE03207A
:1064B00000007A4442424F4CC6540C00E9540C0090
:1064C00004F403209A99999999990D4070B504465E
:1064D00040F6B8300BF0B8FB78497948794EFEF7B2
:1064E00087FE2046FFF734FFFFF79EFE764974488B
:1064F000FEF77EFE0121206803F04EFE64200BF0C3
:10650000A3FB0CF0C9F971490AF0ABFAA06802F0DC
:1065100039FA64200BF098FB6D4BA06993ED000AEB
:106520006C4B83ED000A6C4B197803F0F0FC64208F
:106530000BF08AFB69486FF00041FFF7C5FD684822
:106540006FF00041FFF7C0FD6FF000416548FFF7B5
:10655000BBFD0CF0A1F964490AF083FA0CF09CF938
:1065600062490AF07EFA64200BF06EFB012120687C
:1065700003F014FF42F210700BF066FB0CF08CF984
:106580005B490AF06EFA64200BF05EFB0121206883
:1065900003F052FF42F210700BF056FB606803F0FC
:1065A0001FF842F210700BF04FFB0CF075F95149D7
:1065B0000AF057FA41F288300BF046FB2069FEF7EB
:1065C00043FE64200BF040FB0CF066F94A490AF0E8
:1065D00048FAE06801F068FF64200BF035FB0CF02E
:1065E0005BF946490AF03DFA606803F0EFFA64206F
:1065F0000BF02AFB0CF050F941490AF032FA4FF443
:10660000FA700BF021FB0025606803F02BFA60B9EB
:1066100001350CF041F92A463146FFF713F84FF4E3
:10662000FA600BF011FB072DEED164200BF00CFB90
:106630000CF032F93349344E0AF013FA40F6B83010
:106640000BF002FB606803F0E3FA64200BF0FCFA45
:1066500041F288300BF0F8FA2C491948FEF7C8FDD2
:106660004FF4FA600BF0F0FA6069FFF737F8642036
:106670000BF0EAFA0CF010F925490AF0F2F94FF4A0
:10668000FA700BF0E1FA0025606803F019F860B9C0
:1066900001350CF001F92A463146FEF7D3FF4FF4DD
:1066A000FA600BF0D1FA032DEED164200BF0CCFA96
:1066B00018490348FEF79CFD012070BD46550C00AB
:1066C000D0DE032040560C0051550C0067550C00DD
:1066D0009CD3032098D30320A0D30320FCD603200F
:1066E00018D70320E0D603207A550C00C7550C00BC
:1066F000D6550C00E9550C00F8550C000A560C0054
:1067000022560C0053560C0091560C0069560C0092
:1067100082560C00A3560C0030B585B085686846DB
:106720000C4609F06EFF6B4602220021284602F05B
:10673000E7F9684609F0CEFE09F020FB38B168465B
:1067400022680449FFF784FC01A8FFF7EBFD05B0C0
:1067500030BD00BFAC560C002DE9F0432C21BBB07E
:1067600004460AF07EF8AF49054606A809F0FDFE8A
:10677000AC490AA809F0F9FEAA490EA809F0F5FEED
:10678000A84912A809F0F1FE6B1C3ED1214606A8CB
:1067900009F028FFA44936A809F0E7FE06A936A8A3
:1067A00009F0FCFFA1490AF005F80AA909F0F6FF73
:1067B0009E4909F0FFFF0EA909F0F0FF9B4909F07F
:1067C000F9FF12A909F0EAFF01689948FEF710FDE8
:1067D00036A809F07FFE974906A80AF000F80028BD
:1067E0006DD1FFF7E1FC02F01FFC12A809F072FE68
:1067F0000EA809F06FFE0AA809F06CFE06A809F0C1
:1068000069FE01203BB0BDE8F083002DC2DD05F13B
:1068100001094A462C2120460AF015F800F101082A
:10682000074642462C2120460AF00DF82B4600224E
:106830002146064636A80AF017F836A906A809F038
:10684000EBFE36A809F046FE3B464A46214636A8EE
:106850000AF00AF836A90AA809F0DEFE36A809F0FF
:1068600039FE70490EA809F0E7FE6E4912A809F03A
:10687000E3FE002F8EDD002E19DD33464246214611
:1068800036A809F0F1FF36A90EA809F0C5FE36A812
:1068900009F020FE214636A8721C0AF005F836A938
:1068A00012A809F0B9FE36A809F014FE72E72146D5
:1068B00036A8424609F0F8FF36A90EA8F1E75E496E
:1068C00036A809F052FE36A906A809F0B3FF04461F
:1068D00036A809F0FFFD5CB106A9052236A809F02B
:1068E000E3FFFFF761FC369902F088FC36A8FFE26F
:1068F000524906A809F073FF20B9FFF755FC02F0D2
:106900003FFC72E74E4906A809F069FF10B909F08B
:1069100075FC6AE74B4906A809F061FFA8B94A4926
:106920004348FEF765FC09F029FA38B136A8474A12
:106930004749FFF7ABFB37A8FFF7F4FCC8200BF083
:1069400083F9002009F03FFC4FE7424906A809F00F
:1069500046FF30B9FFF758FC02220C21FFF718F967
:1069600043E73D4906A809F03AFF78BB3B490EA82A
:1069700009F035FF044658B9FFF746FC05460AA85A
:1069800009F0C2FF2246C1B22846FFF775FA2CE78C
:1069900033490EA809F023FF48B9FFF735FC044638
:1069A0000AA809F0B1FF0122C1B22046EDE72D4946
:1069B0000EA809F014FF00287FF417AFFFF724FC9E
:1069C00004460AA809F0A0FF0222EDE7264906A81E
:1069D00009F005FF002840F0E08024490AA809F0EA
:1069E000FEFE002840F0818021490EA809F0F7FE44
:1069F000002845D11F490E48FEF7FAFBFFF7D4FBEC
:106A00004FF0FF3102F06CFC09F0B8F900283FF4B8
:106A1000ECAE194A194936A8FFF738FB37A8FFF73B
:106A200081FCE2E667660C00B0560C00DD5F0C00EE
:106A3000D0DE0320BB560C00C0560C00C6560C001E
:106A4000D1560C00D8560C00DC560C00EE560C004B
:106A5000F7560C00FB560C0000570C000A570C00B0
:106A600012570C001A570C0020570C0023570C002B
:106A700028570C002C570C0043570C005A570C0099
:106A800098499948FEF7B4FBFFF78EFB04460EA821
:106A900009F03AFF0146204602F022FC09F06EF9A7
:106AA00000283FF4A2AE914936A809F05EFD0EA879
:106AB00009F02AFF0A22014632A809F0EAFD32A9AC
:106AC00036A809F06BFE8A4909F074FE894902680C
:106AD0002EA8FFF7BDFA2FA8FFF724FC32A809F073
:106AE000F9FC36A809F0F6FC7FE683490AA809F00C
:106AF00076FED0B9FFF758FB02F070F87F490246E6
:106B000036A809F007FF36997748FEF771FB09F0C0
:106B100035F900283FF4EAAE369A794932A8FFF7F2
:106B200097FA33A8FFF7FEFBE0E676490AA809F0DA
:106B300056FE88B9FFF738FB014636A802F092F8F6
:106B400036996948FEF754FB09F018F900283FF41C
:106B5000CDAE369A6C49E1E76C490AA809F03FFED0
:106B600020B9FFF721FB01F00DFFE3E768490AA810
:106B700009F035FE00287FF438AEFFF715FB02F070
:106B8000EBF964495848FEF733FB09F0F7F80028A1
:106B90003FF42BAE604A5F493DE7604906A809F023
:106BA0001EFE30BB5E490AA809F019FE80B9FFF746
:106BB0001BFB0021FEF718FFFEF7DCF959490446DC
:106BC00036A809F0D2FC36A92046FFF7A5FD8DE6D0
:106BD00055490AA809F003FE00287FF406AEFFF726
:106BE00003FB0121FEF700FFFEF7C4F94F490446FD
:106BF000E6E74F4906A809F0F2FD00BB48490AA89C
:106C000009F0EDFD48B9FEF70BFB012103F0A4FBF1
:106C1000FEF7B0F947490446D2E743490AA809F00C
:106C2000DEFD044600287FF4E0ADFEF7F9FA2146C8
:106C300003F092FBFEF79EF93F490446C0E73F4947
:106C400006A809F0CCFD002840F0C5803C492EA8DC
:106C500009F08BFC3B490AA809F0C1FD002877D157
:106C60000AF0ABFF0A22014636A809F012FD36A948
:106C70002EA809F0D9FC36A809F02CFC324936A818
:106C800009F073FCFFF780FA014632A8FEF722FBF9
:106C900032A936A809F082FD2B4909F08BFD014687
:106CA0002EA809F06AFD32A809F014FC36A809F0F4
:106CB00011FCFEF75FF900F11C012EA809F05DFD43
:106CC0002E990948FEF794FA09F058F8002800F0C8
:106CD0006D822E9A1D4936A8FFF7BAF937A8FFF73B
:106CE00021FB63E25F570C00D0DE032077570C00D6
:106CF00086570C005A570C0087570C008D570C0014
:106D000090570C0096570C009D570C00A6570C008E
:106D1000AD570C00B4570C00BE570C00D2570C00F6
:106D2000C4550C00DC570C0054680C00E9570C00EB
:106D3000F7570C0001580C000E580C001C580C00A2
:106D400021580C002C580C00DD5F0C0027580C005B
:106D5000B0490AA809F043FD002840F027820AF054
:106D60002CFF0A22014636A809F093FC36A92EA86A
:106D700009F05AFC36A809F0ADFBA74936A809F07E
:106D8000F4FBFFF701FA014632A8FEF7A3FA32A995
:106D900036A809F003FDA04909F00CFD01462EA814
:106DA00009F0EBFC32A809F095FB36A809F092FB3C
:106DB000FEF7E0F800F12C012EA809F0DEFC2E9978
:106DC0009648FEF715FA08F0D9FF002800F0EE818A
:106DD0002E9A93497FE7934906A809F000FD0446DF
:106DE000002840F088801AA808F0D0FF1AA91EA831
:106DF00009F007FC88491EA809F0DCFC0546FFF7EE
:106E0000C3F9014622A8FEF755FB22A9284609F03E
:106E1000C5FC814909F0CEFC0546FFF7B5F90146EE
:106E200026A8FEF757FA26A9284609F0B7FC7A49A2
:106E300009F0C0FC0546FFF7C7F9224601462AA81B
:106E400002F0F8FC2AA9284609F0A8FC724909F0CA
:106E5000B1FC0446FFF7B8F901462EA802F03EFE49
:106E60002EA9204609F09AFC6B4909F0A3FC0446C0
:106E7000FFF7AAF9014632A802F074FF32A92046B2
:106E800009F08CFC644909F095FC0446FFF79CF975
:106E9000014636A802F0A8FE36A9204609F07EFC7D
:106EA000014616A809F0ADFB36A809F013FB32A87D
:106EB00009F010FB2EA809F00DFB2AA809F00AFB27
:106EC00026A809F007FB22A809F004FB1EA809F078
:106ED00001FB1AA809F0FEFA08F050FF38B136A8F5
:106EE000169A5149FFF7B4F837A8FFF71BFA16A80E
:106EF00009F0F0FA79E44D4906A809F070FC08BBE6
:106F00004B4932A809F031FBFFF73EF9014636A89C
:106F1000FEF7E0F936A932A809F07EFB36A809F0A1
:106F2000D9FA32993D48FEF763F908F027FF38B1E6
:106F3000329A404936A8FFF78BF837A8FFF7F2F9E5
:106F400032A8D5E73C4906A809F049FC88B9FFF703
:106F50001BF9014636A8FEF721FA36992F48FEF7AD
:106F600047F908F00BFF00283FF4C0AC369A3349CC
:106F7000D4E5334906A809F032FC20B9FFF704F93B
:106F8000FEF74CFA31E42F4906A809F028FC18BB9B
:106F9000274932A809F0E9FAFEF7A6FD03781BB9E4
:106FA000FEF7A2FD01F022F8FEF79EFD014636A88D
:106FB00001F08AF936A932A809F02EFB36A809F0AB
:106FC00089FA32991548FEF713F908F0D7FE002820
:106FD000B6D0329A1C49ADE71C4906A809F0FFFB60
:106FE00000283BD11A490AA809F0F9FB00287FF4D0
:106FF000FCAB184936A809F0B8FA36990748FEF7ED
:10700000F7F808F0BBFE00283FF470AC369A12493E
:1070100084E500BF39580C00DD5F0C00D0DE032092
:1070200034580C0040580C004D580C0054580C00BB
:1070300067660C00F4550C005D580C0066580C0097
:107040006D580C0074580C00ED540C007C580C006A
:1070500084580C0089580C00E9540C00934906A888
:1070600009F0BDFB002840F0A38091490AA809F06F
:10707000B6FB38B9FEF772FA8E498F48FEF7B8F8BA
:10708000FFF7B3BB8D490AA809F0A9FB30BBFEF797
:107090002BFD03781BB9FEF727FD00F0A7FFFEF7D5
:1070A00023FD00F0C1FF10EE104AFEF785FC0590AD
:1070B0002046FDF719F9059ACDE90001804936A867
:1070C00009F028FC36997C48FEF792F808F056FE45
:1070D00000283FF40BAC369A7A491FE57A490AA892
:1070E00009F07DFBF0B90EA809F00EFC7749041EEB
:1070F00012A8D8BF052409F072FBE4B2054620B9F6
:10710000FFF782F82A46214628E4714912A809F0BF
:1071100066FB18B9FFF778F80222F4E7FFF774F876
:107120000122F0E7FEF7E0FC03781BB9FEF7DCFC78
:1071300000F05CFFFEF7D8FC01462EA801F098F89D
:10714000FEF7D2FC00F070FF10EE104AFEF734FCA0
:107150006049059036A809F008FA36A92EA809F06A
:1071600069FB0028204614BF31253025FDF7BCF807
:10717000059A0095CDE902017823574932A809F014
:10718000C9FB36A809F0A6F932994B48FEF730F84A
:1071900008F0F4FD38B136A8329A5049FEF758FF8E
:1071A00037A8FFF7BFF832A809F094F92EA89FE698
:1071B0004B4906A809F013FB88B9FFF705F801460B
:1071C00036A802F0F5FC36993B48FEF711F808F0B6
:1071D000D5FD00283FF48AAB369A42499EE44249E5
:1071E00006A809F0FCFA50BBFEF7ECFB0646FEF7DA
:1071F000EFFB0746FEF7F2FB0446F0B108F04CFA4D
:10720000051BFEF7D9FB804612200CF021FB374905
:10721000CDE902803B46324636A8CDE9004509F06B
:1072200079FB36992448FDF7E3FF08F0A7FD002815
:107230003FF45CAB369A2E4970E40546E1E72D49F0
:1072400006A809F0CCFA00285AD11C490AA809F06E
:10725000C6FA00287FF4C9AAFEF746FC03781BB9DA
:10726000FEF742FC00F0C2FEFEF73EFC00F0DCFE42
:1072700010EE105A0AF084FC08B10AF09EFC044695
:107280002846FDF731F8009402460B4636A81A4905
:1072900009F040FB36990848FDF7AAFF08F06EFD9B
:1072A00000283FF423AB369A144937E4AC580C005D
:1072B000C2580C00B7580C00D0DE032084580C00D4
:1072C000C8580C00F0580C00C2530C000A570C00B0
:1072D0001A570C007F6A0C00FB580C0035590C0043
:1072E00047590C004D590C0053590C0057590C00CC
:1072F000A6590C00AD590C00B2590C00D3590C0022
:10730000BE4906A809F06BFA002837D1BC492EA85F
:1073100009F02BF9FEF7E8FB014636A801F072F8F8
:1073200036A92EA809F078F936A809F0D3F8B5499E
:1073300036A809F01AF9FEF7D7FB00F031FF0A2250
:10734000014632A809F08AF932A936A809F026FACE
:1073500001462EA809F011FA32A809F0BBF836A8A8
:1073600009F0B8F82E99A848FDF742FF08F006FD8D
:1073700000283FF41BAF2E9AA449ACE4A44906A808
:1073800009F02DFA0028C1D0A24906A809F027FA71
:1073900080B1A14906A809F022FA50BB9F490AA86A
:1073A00009F01DFAC8B9FDF73BFF012102F0F6FF15
:1073B000FFF71BBAFEF708FF011D36A809F021F9F7
:1073C00036999148FDF714FF08F0D8FC00283FF4E7
:1073D0008DAA369A9249FFF7A1BB92490AA809F0F3
:1073E000FEF9044600287FF400AAFDF719FF2146A4
:1073F000DCE78D4906A809F0F2F9B8B987490AA86F
:1074000009F0EDF930B9FDF70BFF012103F014F895
:10741000FFF7EBB983490AA809F0E1F9044600280F
:107420007FF4E3A9FDF7FCFE2146EFE77F4906A8BC
:1074300009F0D5F900284AD10BF02EFA7C4909F061
:1074400010FBFDF7EDFE012102F0A8FF64200AF019
:10745000FBFB0BF021FA774909F003FBFEF794FEE2
:10746000FDF7F2FE64200AF0EFFB0BF015FA72490B
:1074700009F0F7FAFEF738FB01F016F864200AF07D
:10748000E3FB0BF009FA6D4909F0EBFAFEF79CFEFD
:1074900002F09CFB64200AF0D7FB0BF0FDF9684971
:1074A00009F0DFFAFEF790FE02F0DCFA64200AF041
:1074B000CBFB0BF0F1F9634909F0D3FAFEF784FE38
:1074C00002F0A6FB64200AF0BFFBFFF78EB95E490D
:1074D00006A809F084F9044600284AD10BF0DCF92B
:1074E0005A4909F0BEFAFEF77FFEFEF719FAFEF7D9
:1074F0004BFEFDF7D7FE64200AF0A6FB0BF0CCF99B
:10750000534909F0AEFAFEF7EFFA00F04FFD6420A0
:107510000AF09AFB0BF0C0F94E4909F0A2FAFEF707
:1075200053FE02F05CFB64200AF08EFB0BF0B4F912
:10753000494909F096FAFEF747FE02F0CBFA6420BB
:107540000AF082FB0BF0A8F9444909F08AFAFDF72A
:1075500067FE214602F022FF64200AF075FB0BF063
:107560009BF93F4909F07DFAFEF72EFE02F0F6FB8B
:10757000A8E73C4906A809F032F950B90BF08CF99C
:10758000394909F06EFAFDF74BFE012102F054FF74
:1075900098E7364906A809F022F9A0B90BF07CF962
:1075A000334909F05EFAFEF70FFE02F00FF964208E
:1075B0000AF04AFB0BF070F92E4909F052FAFDF778
:1075C0002FFE002122E72C4906A809F008F900281F
:1075D00056D1FDF725FE012102F02EFF4FF47A70FF
:1075E0000AF032FB0BF058F9244909F03AFAFEF799
:1075F000EBFD02F065F8FFF7F8B800BFD8590C00B2
:1076000067660C00DD5F0C00D0DE0320E8590C003B
:10761000DE590C00E4590C00EE590C00C4550C0066
:10762000CC5A0C0054680C00F7590C00005A0C009E
:10763000C7550C00E9550C00F8550C000A560C0013
:1076400022560C00065A0C00195A0C00205A0C0045
:10765000385A0C004B5A0C00645A0C00835A0C0028
:10766000935A0C00A75A0C00AC5A0C00BA5A0C00E2
:10767000C05A0C00D05A0C00DF5A0C0082560C0085
:10768000084906A809F0ABF800287FF4AEA80BF073
:1076900003F9054909F0E5F9FEF796FD02F096F8C1
:1076A000FFF7A3B8E55A0C00C05A0C0000B589B02A
:1076B0001349684608F059FF0BF0EEF80A2201461C
:1076C00004A809F053FA04A9684608F0A5FF04A825
:1076D00008F000FF684609F0EEF8029B4BB16946DE
:1076E00004A808F08EFF04A8FFF736F804A808F0F5
:1076F000F1FE684608F0EEFE09B05DF804FB00BF3D
:1077000067660C0038B50468002008F06FFA20B1F5
:10771000637813B908F022FBFAE76378BFF35B8F55
:10772000651C0BB9002038BD002008F05FFA20B1BD
:107730002B7813B908F012FBFAE72378012BF1D16B
:10774000207BF0E77FB51C4B1C4E1D4D1D4803965A
:1077500000241C701C4B00936A46234641F288317A
:107760000295FEF7C9FC6846FDF7B4FB174B009382
:107770006A46234647F230511548CDE90256FEF7D6
:10778000BBFC6846FDF7A6FB124B00936A462346F6
:107790004EF660211048CDE90256FEF7ADFC684672
:1077A000FDF798FB21460D480AF0F8FB0C4808F05D
:1077B000EDFA04B070BD00BFB0D60320894E0B00B7
:1077C000754E0B00FCD603200D600B0019600B00FA
:1077D00018D7032025600B00E0D60320D0D6032065
:1077E000BCD603202DE9F041DFF8448398F800303F
:1077F0009AB00446002B4AD108F0C0FA002846D0BF
:10780000E06803780BB900F0F1FBE06800F0D8FC09
:107810000546E06800F008FC10EE100AFCF764FD75
:1078200006460F46CDE90267AB4A0095032312686E
:10783000AA4912A809F06EF8129AA94916A8FEF7EB
:1078400007FC17A8FEF76EFD142D1ADC2A46A54981
:10785000A54D16A8CDE9006709F05CF8169AA34972
:107860000EA8FEF7F5FB0FA8FEF75CFD0AF088F9FD
:10787000002800F05F820AF0A0F9286016A808F03E
:1078800029FE012312A888F8003008F023FE08F032
:1078900075FA002800F0BB80102200210AA80DF024
:1078A000B7FA0CF06BF810220AA9002007F004FFC9
:1078B0008F4B0A9A8C4D9A4240F03F82BDF82C3093
:1078C0009FED8C7A07EE903AF8EEE77AC7EE877A6A
:1078D00017EE900AFCF708FD0B460D9901910C99E3
:1078E00000910246844912A809F014F8129A7F49BF
:1078F00016A8FEF7ADFB17A8FEF714FD1022002115
:1079000016A80DF085FA0CF039F80020102216A9FF
:1079100007F0DAFE00232B7112A808F0DBFD10221D
:1079200000210EA80DF074FA0CF028F810220EA910
:10793000402007F0C1FE714B0E9A9A422ED1BDF83D
:107940003C309FED6C7A07EE903AF8EEE77AC7EE9E
:10795000877A17EE900AFCF7C7FC0B461199019144
:10796000109900910246664912A808F0D3FF129AB6
:10797000644916A8FEF76CFB17A8FEF7D3FC10228B
:10798000002116A80DF044FA0BF0F8FF4020102259
:1079900016A907F099FE12A808F09CFD10220021FC
:1079A00012A80DF035FA0BF0E9FF102212A9802081
:1079B00007F082FE544B129A9A4228D1159B0393EA
:1079C000149B0293BDF84C309FED4A7ABDF84E20CF
:1079D000049207EE903AF8EEE77AC7EE877A17EE50
:1079E000900AFCF781FC049ACDE90001474916A8EA
:1079F00008F090FF169A3D4906A8FEF729FB07A854
:107A0000FEF790FCFEF714FB16A808F063FD404D4E
:107A100007F042FE2B68C01A3E4B984256D30AF03C
:107A2000CCF80A2201460EA808F033FE3A4916A8FF
:107A300008F09BFDFEF7A8FB014612A8FDF74AFCE3
:107A400012A916A808F0AAFE334908F0B3FE0146B1
:107A50000EA808F092FE12A808F03CFD16A808F047
:107A600039FD04F11C010EA808F087FE2B4916A869
:107A700008F07BFD0EA916A808F090FE01682848C2
:107A8000FDF7B6FB16A808F025FD08F077F90028E9
:107A900000F07D810E9A234916A8FEF7D9FA16A8A0
:107AA000FFF730FE064617A8FEF73CFC002E00F05C
:107AB000698107F0F1FD1C4928601948FDF798FB22
:107AC00007F0EAFD28600EA808F004FD174B1A78AD
:107AD000002A77D02EE000BFBCD60320EC5A0C0061
:107AE000255B0C002A5B0C0004F40320E9540C0015
:107AF000544C424800007A44495B0C00454B4157C6
:107B00009B5B0C00D3590C0042424F4CC45B0C00F1
:107B1000D8D6032080EE3600DD5F0C00F75B0C004A
:107B2000D0DE032027580C00045C0C00CDD60320C7
:107B3000B8D60320002661681E70012206A801F055
:107B400079FE069A616805920AA801F0C7FF0A9BB0
:107B5000616804930EA802F005F961680E9D12A8F1
:107B600002F042F81299DDE90432CDE9005116A87D
:107B7000AF4904F11C0508F0CDFE16A9284608F00F
:107B80004BFD16A808F0A6FC12A808F0A3FC0EA84E
:107B900008F0A0FC0AA808F09DFC06A808F09AFCD2
:107BA000A768294616A808F02CFD314616AB3246C8
:107BB000384600F0A5FF16A808F08CFC9D499E48A9
:107BC000FDF716FB9D4B1A7802B3E168002616A854
:107BD00004F12C051E7000F0E7FC16A9284608F0F9
:107BE0001BFD16A808F076FCA768294616A808F021
:107BF00008FD314616AB0122384600F081FF16A879
:107C000008F068FC8E498C48FDF7F2FA8D4D2B7810
:107C1000002B00F089800AF03FFE8B4908F021FF1D
:107C200089498548FDF7E4FA002320462B70FEF7CA
:107C30008FFB0AF031FE854908F013FF84480BF0F2
:107C4000E1FC002800F0BF800AF026FE8149824E48
:107C500008F007FF08F092F80746002800F0998026
:107C60007E4F3B78002B3FD106ADA06800F0B6FFF9
:107C700029460A2208F0B2FB794B1A680592FEF7F2
:107C800083FA01460EA8FDF715FC0E9B0493FEF740
:107C90007BFA014612A8FDF71DFBE168DDF848807C
:107CA00016A800F099FA1699CDF80080DDE90432A3
:107CB000CDE901510AA86B4908F02CFE16A808F07E
:107CC00009FC12A808F006FC0EA808F003FC0A9AAA
:107CD000654916A8FEF7BCF917A8FEF723FB012398
:107CE0000AA83B7008F0F6FB0AF0D6FD5F4908F0E1
:107CF000B8FE33785E4A01331278DBB29A423370B1
:107D000012D8002516A8CDE916553570ADF860508B
:107D10008DF862500AF067FA4D482B4640682A46B3
:107D2000294607F0CBFF3D7060691AB0BDE8F0410D
:107D3000FDF702BE01232B60A0E52B79002B3FF459
:107D4000EEADEB889FED4B7A07EE903AF8EEE77ACE
:107D5000C7EE877A17EE900AFCF7C6FA0B46A968B9
:107D600000910246444916A808F0D4FD169A4349EA
:107D700012A8FEF76DF913A8FEF7D4FA00232B71B1
:107D800016A8CAE53E492C48FEF7E6F998E63D49B3
:107D9000F9E70AF081FD3C4908F063FEA06902F0B2
:107DA000C1F8054630B10AF077FD384908F059FEB0
:107DB0003770B9E70AF070FD354908F052FE354BCF
:107DC00035701D80B0E70AF067FD3349314E08F089
:107DD00048FE324B9FED327AD3ED007A358867EE5C
:107DE000877A0135F5EEC07AADB2F1EE10FA17EEF2
:107DF000900A358015DBFCF777FA2A4B0022FCF756
:107E000015F9FCF779FDA8428EDC114800231A46CB
:107E10001946406807F04AFF07F0A8FF00233380A7
:107E200082E7FCF761FA1F4B0022FCF7FDF8E8E758
:107E3000D9610C007A5C0C00D0DE0320CED6032082
:107E4000825C0C00CCD60320915C0C00A45C0C007E
:107E500070DF0320B45C0C00DDD60320DCD60320E9
:107E6000BCD60320CC5C0C00DB5C0C00E05C0C009E
:107E7000A1D3032000007A44775B0C00E9540C0086
:107E8000285C0C00575C0C00FF5C0C00225D0C00B1
:107E90003E5D0C00A2D303205B5D0C009CD303204D
:107EA000000070420000E03F38B510EE100AFCF709
:107EB0001BFA1FA3D3E9002304460D46FCF7FCFC84
:107EC00058BB1DA3D3E9002320462946FCF7F4FC48
:107ED00028BB1BA3D3E9002320462946FCF7ECFC72
:107EE000F8B919A3D3E9002320462946FCF7E4FC9E
:107EF000C8B917A3D3E9002320462946FCF7DCFCC8
:107F000098B915A3D3E9002320462946FCF7CAFCFB
:107F1000002814BF0A20002038BD6420FCE7502050
:107F2000FAE73C20F8E72820F6E71420F4E700BF42
:107F3000C3F5285C8FC210400AD7A3703D0A1040D9
:107F4000E17A14AE47E10E4052B81E85EB510E4067
:107F50009A99999999990D40CDCCCCCCCCCC0C4028
:107F600010B504468AB008464FF0200C0021CDE938
:107F70000023CDE902C10B4602AA216807F0F4FDF7
:107F80000AB010BD0EB403B503AB322153F8042B75
:107F90000193FFF7E5FF02B05DF804EB03B0704713
:107FA0000022027042708270C270704710B5037870
:107FB00004460BB100230370642009F045FE63788A
:107FC0000BB100236370642009F03EFEA3780BB16F
:107FD0000023A370642009F037FEE3780BB100237F
:107FE000E370642009F030FE012010BD38B56B212C
:107FF0000446094803F013FC054638B10749084810
:10800000FDF7F6F801232370207838BD05490448B0
:10801000FFF7B8FF2570F7E740D70320745D0C0029
:10802000D0DE0320985D0C00F8B52DED028B0378AF
:108030000646002B45D02648264D03F049FCB0EEFD
:10804000408A07F029FB244BD3ED007AF5EEC07A85
:10805000F1EE10FA044611D583ED008A2C6018EE7B
:10806000100AFCF741F902460B461C481C49FDF773
:10807000BFF8B0EE480ABDEC028BF8BD78EE677A27
:108080009FED187AF0EEE77AF4EEC77AF1EE10FA87
:10809000E2DC2A68144B821A9A42E0D9134F144941
:1080A0003B68C31A8B42DAD912490C48FEF754F8E0
:1080B00030463C60FFF79AFF0121054803F09BFB27
:1080C000CCE70D4905489FED0D8AFEF745F8D0E74E
:1080D00040D7032038D70320A4D30320D0DE0320C9
:1080E000FD5D0C000AD7233C9FBB0D003CD703204D
:1080F0001FBF0200BC5D0C00145E0C0000000000FD
:10810000037813B1024803F023BC9FED020A7047C5
:1081100040D7032000000000037813B1024803F0A9
:1081200021BC9FED020A704740D7032000000000E9
:10813000037813B1024803F0DDBB9FED020A7047DC
:1081400040D7032000000000037813B1024803F079
:10815000F5BB9FED020A704740D7032000000000E6
:10816000037813B1024803F0D7BB9FED020A7047B2
:1081700040D7032000000000037813B1024803F049
:1081800003BC9FED020A704740D7032000000000A7
:10819000007810B1014803F00BBC704740D70320B2
:1081A000007810B1014803F00ABC704740D70320A3
:1081B000007810B1014803F061BB704740D703203D
:1081C00008B503782BB1FFF72FFFBDE80840FFF794
:1081D0006BBE184608BD0000F0B50B7891B005469F
:1081E0000C46002B39D01F4908A808F0BEF92046DC
:1081F000FFF71AFF10EE107AFFF756FE07902046A1
:10820000FFF78AFF204610EE106AFFF779FF10EEA5
:10821000100AFCF769F8CDE904013846FCF764F868
:10822000CDE902013046FCF75FF8079ACDE900017D
:108230000D490CA808F06EFB0CA908A808F0ECF991
:108240000CA808F047F908A9284608F0C0F908A8C2
:1082500008F040F9284611B0F0BD044908F085F94E
:10826000F8E700BF7F6F0C00455E0C005E660C00F7
:1082700030B50D4689B01149044608F076F92B78DF
:10828000C3B10F4803F0A2FB03900D4803F0AFFB0E
:1082900002900B4803F0A4FBDDE90232094900908B
:1082A00004A808F037FB04A9204608F0B5F904A893
:1082B00008F010F9204609B030BD00BF575E0C0031
:1082C00040D703205D5E0C002DE9F04F2DED028BB1
:1082D0000B7899B005460C4643B93B4908F045F97F
:1082E000284619B0BDEC028BBDE8F08F0846FFF7B9
:1082F0005FFF18B935493648FDF72EFF2046FFF7D6
:1083000093FE2046B0EE408AFFF7FAFE204610EEBC
:10831000107AFFF701FF10EE106AB0EE480AFFF77F
:10832000C3FD2146139014A8FFF7A2FF2046FFF7D4
:10833000FFFE204610EE109AFFF706FF204610EED3
:1083400010AAFFF70DFF204610EE10BAFFF714FF3A
:10835000204610EE108AFFF71BFF12902046FFF711
:108360001FFF04464046FBF7BFFFCDE9100158460A
:10837000FBF7BAFFCDE90E015046FBF7B5FFCDE99B
:108380000C014846FBF7B0FF129B0793CDE90A01A9
:10839000149B069338460894FBF7A6FFCDE9040129
:1083A00018EE100AFBF7A0FFCDE902013046FBF7FB
:1083B0009BFF139ACDE900012846064908F0AAFA66
:1083C00014A808F087F88BE767660C00665E0C005F
:1083D000D0DE0320A25E0C0038B504460022012541
:1083E0000548402105F0FEFA044905486570FCF790
:1083F000FFFE284638BD00BF4CD70320115F0C009C
:10840000D0DE03207FB54B780446F3B1114805F068
:108410006DFB104810EE106A05F098FB304610EE28
:10842000105AFBF761FF02460B462846CDE90223AE
:10843000FBF75AFFDDE90223CDE90001064920469A
:1084400008F068FA204604B070BD044908F08DF8C1
:10845000F8E700BF4CD703204D5E0C0064660C00AB
:1084600038B50446012201250548452105F0BAFA30
:1084700004490548A570FCF7BBFE284638BD00BF7F
:1084800060D703203B5F0C00D0DE032010B5012431
:10849000C47003490348FCF7ABFE204610BD00BF83
:1084A000645F0C00D0DE032010B5037804460BB9DE
:1084B000FFF79CFD642009F0C7FB637813B92046E1
:1084C000FFF78AFF642009F0BFFBA37813B92046A9
:1084D000FFF7C6FF642009F0B7FBE37813B9204625
:1084E000FFF7D4FF642009F0AFFB012010BD0000AE
:1084F00010B50B78044673B1094803F033FA10EE57
:10850000100AFBF7F1FE02460B462046054908F02B
:1085100001FA204610BD044908F027F8F9E700BF2A
:1085200040D70320A05F0C0064660C0008B5074824
:1085300003F0EAF8064805F054FA064805F051FA47
:10854000BDE808400448002109F028BD40D70320B9
:108550004CD7032060D7032044D7032010B504462E
:1085600088B00E480BF04EF898B10C4968460AF0F6
:10857000F5FB684609F0A4FB10EE100AFBF7B4FE09
:1085800002460B462046064908F0C4F9204608B0CA
:1085900010BD0449204607F0E8FFF7E770DF03202D
:1085A000B2660C0067660C0030B50C4689B04149D4
:1085B000054607F0DAFF23783BB12046FFF7F8FDC8
:1085C00018B93D493D48FDF7C7FD21466846FFF70C
:1085D00003FE694604A808F014F8394904A808F015
:1085E000E9F80146284608F0C8F804A807F072FF29
:1085F000684607F06FFF21466846FFF739FE694677
:1086000004A807F0FEFF2E4904A808F0D3F801469D
:10861000284608F0B2F804A807F05CFF684607F0A7
:1086200059FF21466846FFF763FF694604A807F033
:10863000E8FF234904A808F0BDF80146284608F0E1
:108640009CF804A807F046FF684607F043FF214660
:108650006846FFF7D7FE694604A807F0D2FF18491D
:1086600004A808F0A7F80146284608F086F804A8F0
:1086700007F030FF684607F02DFF2046FFF790FD1A
:108680001049024604A808F045F904A9284608F054
:1086900074F804A807F01EFF214604A8FFF75EFF48
:1086A00004A9284608F069F804A807F013FF284633
:1086B00009B030BD7F6F0C00A85F0C00D0DE032036
:1086C000DD5F0C00DB5F0C0070B50C1E0646154626
:1086D0000BDA0A2A09D12D2108F0B0F96142EAB279
:1086E0003046BDE8704008F0C8B92146F7E74B684E
:1086F00043608B688360CB68C36030B500F11003C2
:1087000001F10F0200F11D0412F8015F03F8015B93
:10871000A342F9D10B6A036230BD0000142310B5E7
:108720000360082304460B490371184407F01DFF3A
:1087300004F1180003F064FB00230122C4E90F23B5
:1087400084F8443004F148000AF028FF024B6366C5
:10875000204610BD67660C005B5E0C0010B5044639
:10876000183003F0EFFA044803F02AFD002384F8E0
:108770004430012010BD00BFF4DA032070B5754904
:108780000546ADF5866D744803F0D2FD05F1180479
:10879000B8B9704A7049162312A803F085FD12A9D2
:1087A0002046FFF7A4FF03F071FB20B10AF074F834
:1087B0006A4908F056F90123EB6301200DF5866D37
:1087C00070BD204603F062FB88B9624A62491623F5
:1087D00012A803F069FD12A92046FFF788FF03F0F5
:1087E00055FB0028E7D00AF057F85D49E1E720463D
:1087F00003F04CFBA8B10AF04FF85A4908F01AF9F7
:108800000AF04AF80646204603F01DFB0A220146FC
:10881000304608F032F9304608F017F9204603F0E8
:1088200029FB09F0FFF9039009F0F0F9029009F033
:10883000D5F9064609F0DEF9DDE90232CDE900603E
:10884000494905A808F066F8484912A807F08DFEC6
:1088500005A912A807F0A2FF014605A807F0C2FE6D
:1088600012A807F037FE05A912A807F0CAFE404972
:1088700012A807F09FFF014605A807F0B3FE12A853
:1088800007F028FE09A8059A3349162303F00CFDCA
:1088900009A803F0FBFA002843D02F492D4A12A85B
:1088A000012303F001FD12A92046FFF720FF4FF43A
:1088B0007A7212A9204603F0B9FA024638B112A919
:1088C00009A803F027FA09A803F03CFAEFE709A882
:1088D00003F0D0FA204603F0CDFA09F0DDFF254978
:1088E00008F0BFF8204603F097FA01461A4803F053
:1088F00049FD184A1849162312A803F0D5FC12A9FD
:108900002046FFF7F4FE03F0C1FA80B909F0C4FF76
:10891000194908F0A6F80123EB6305A807F0DAFD72
:108920004BE709F0B9FF154908F09BF8E1E709F0BA
:10893000B3FF1349044612A807F017FE05A912A8B1
:1089400007F02CFF0168204608F08BF812A807F00A
:10895000C1FDE0E768630C00F4DA0320DF5F0C0080
:10896000F25F0C0008600C001B600C0030630C0010
:108970006E630C002C600C0050600C003F600C001B
:1089800069600C001FB50446684607F0FFF96946A8
:1089900004F1080007F040FE684607F09BFDC8237D
:1089A000236009F079FF284908F05BF8217927480E
:1089B00003F04AFB84F8440020B909F06DFF244914
:1089C00008F04FF809F068FF224908F04AF8002241
:1089D0000721214804F0F4FD09F05EFF1F4908F06B
:1089E0004AF809F059FF0368DB6998471C491748A2
:1089F00003F0ACFC20B909F04FFF1A4908F031F838
:108A00001949124803F0A2FC20B909F045FF1749A3
:108A100008F027F812490D4803F08AFC20B109F04C
:108A20003BFF134908F01DF80F49084803F080FC8C
:108A300020B109F031FF0F4908F013F82046FFF785
:108A40009DFE012004B010BD84600C00F4DA032008
:108A50009D600C00B6600C002CDB0320F0600C0065
:108A6000E6610C000F610C0005620C0041610C0016
:108A700072610C0086610C0070B50D46044609F069
:108A80000BFF1C4907F0D6FF04F1180609F004FF9C
:108A9000296807F0E6FF2968304607F0E2FF304614
:108AA00003F050F906F0F8FDE36B20640133E36353
:108AB00009F0F2FE104907F0BDFF09F0EDFEE16B91
:108AC0000A22054607F0D9FF284607F0BEFFE36BF0
:108AD0002268B3FBF2F102FB11334BB909F0DCFE63
:108AE000064907F0BEFF2046FFF748FE0123E36377
:108AF00070BD00BF99610C00A9610C00C7610C003A
:108B0000F0B593B01E468368059204930D46044663
:108B1000FDF73AFB01460AA8FCF7CCFC0A9FFDF7DB
:108B200033FB01460EA8FCF7D5FB316802910E9984
:108B3000DDE90432CDE9007106A8244907F0EAFE18
:108B40000EA807F0C7FC0AA807F0C4FC06A90EA8E7
:108B500007F057FD0EA92046FFF78EFF0EA807F07D
:108B6000B9FC09F099FE1A4907F07BFF012D27D1C6
:108B700007F004F920B3069C164B20461D780CB173
:108B8000FCF7FCF800233C22CDE9003212498DF8B5
:108B90000850034622460EA809F03EFC0F9C7CB10B
:108BA0006368013B63605BB9236820469B68984714
:108BB000A368013BA3601BB923682046DB68984784
:108BC00006A807F087FC13B0F0BD00BFD6610C000B
:108BD0007F6F0C0074D70320DB5C0C0010B59CB0D9
:108BE00001A803F00DF90AA803F00AF91A4A1B4973
:108BF000012313A803F058FB13A901A8FFF777FD81
:108C000003F044F9044638B909F046FE144907F068
:108C100028FF20461CB010BD012201A913A803F0B3
:108C2000BFFB13A90AA8FFF762FD00240AA803F0FE
:108C30002DF968B10AA803F01DF901A913A80122B2
:108C400003F0AEFB13A90AA80134FFF750FDEDE7CE
:108C500001A803F00FF9DCE7E5610C00F4DA03206A
:108C6000EC610C002DE9F0430746ABB044480D46DB
:108C7000444903F05DFB0646002837D021A8414A4D
:108C80003F49012303F010FB21A803F0FFF858B37C
:108C900021A803F0D8F8044621A803F0EBF806A8B1
:108CA000394A3749012303F0FFFA06A803F0EEF82A
:108CB000002845D0012206A918A803F071FB4FF047
:108CC000000818A803F0E2F890B118A803F0D2F851
:108CD00006A921A8012203F063FB21A918A808F125
:108CE0000108FFF704FDECE70446D8E70446D6E7A1
:108CF00006A803F0BFF80FA8244A2149012303F076
:108D0000D3FA0FA803F0C2F8002836D001220FA929
:108D100018A803F045FB4FF0000918A803F0B6F8B7
:108D200088B118A803F0A6F80FA921A8012203F022
:108D300037FB21A918A809F10109FFF7D8FCECE7D6
:108D40004FF0FF38D7E70FA803F094F82B6C1BB156
:108D500006F0A2FC2B6CC31A0493EB6B95F844202D
:108D60000B49CDE902933846CDE90048334607F078
:108D7000D1FD38462BB0BDE8F0834FF0FF39E5E771
:108D8000F4DA032068630C00E5610C0004620C0057
:108D90000A620C00F0B5A9B00DA80C4603F030F83B
:108DA00016A803F02DF85249012322461FA803F00C
:108DB0007BFA1FA916A8FFF79AFC03F067F848B9D9
:108DC00009F06AFD214607F035FE09F065FD4949C5
:108DD00007F047FE012216A91FA803F0E1FA1FA918
:108DE0000DA8FFF784FC444E444D454F0DA803F0F9
:108DF0004DF8002877D0314601A807F0B6FB16A839
:108E000003F00AF82946FBF7AFFF002844D10DA86C
:108E100003F002F801461FA807F0A7FB1FA901A84D
:108E200007F0FAFB1FA807F055FB09F035FD019983
:108E300007F000FE09F030FD394607F0FBFD09F0B0
:108E40002BFD04460DA802F0FEFF0A220146204633
:108E500007F013FE204607F0F8FD0DA802F0DEFF34
:108E600004460DA803F006F84CB90199204803F018
:108E700089FA20B909F010FD224907F0F2FD01221C
:108E800016A91FA803F08CFA0DA81FA9FFF72FFC45
:108E900001A807F01FFBA9E716A802F0BDFF0146D5
:108EA00005A807F062FB05A909A807F0AAFB294657
:108EB00009A807F07FFC04460DA802F0ADFF0146AB
:108EC0001FA807F052FB1FA9204607F067FC0146C8
:108ED00001A807F087FB1FA807F0FCFA09A807F014
:108EE000F9FA05A89FE716A802F0C4FF29B0F0BD63
:108EF000F4DA03205D620C007F6F0C003C630C0011
:108F00006D620C0074620C0038B504460D460D49C4
:108F1000FFF740FF0C492046FFF73CFF5DB10B49CE
:108F20002046FFF737FF0749094803F01DFA0649B5
:108F3000074803F019FA09F0AFFC064907F091FD64
:108F4000012038BDE5610C0004620C003C630C009C
:108F5000F4DA032087620C0010B5044609F09CFC8B
:108F6000254907F07EFD94F844306BB921792348F8
:108F700003F06AF884F8440030B909F08DFCBDE8CC
:108F800010401F4907F06DBD09F086FC1D4907F030
:108F900068FD04F1180002F06DFF01212046FFF783
:108FA000B3FF09F079FC184907F05BFD1749134836
:108FB00003F0CCF9C0B909F06FFC154907F051FD79
:108FC00014490E4803F0C2F990B909F065FC124942
:108FD00007F047FD09F060FC104907F042FD20460C
:108FE000BDE81040FFF7CABB09F056FC0C49E5E7A5
:108FF00009F052FC0B49EBE794620C00F4DA032011
:10900000AF620C00C1620C00D7620C00E6610C007C
:109010000F610C0005620C0041610C0012630C0032
:10902000E9620C00FE620C0030B5A9B009F034FC16
:109030004A4907F016FD04A8494A4A49012303F0AA
:1090400033F904A802F022FF002835D0012204A938
:1090500016A803F0A5F9444D16A802F017FF40B377
:1090600009F01AFC294604461FA807F07EFA16A844
:1090700002F0D2FE01460DA807F077FA0DA91FA84D
:1090800007F08CFB0168204607F0EBFC0DA807F009
:1090900021FA1FA807F01EFA16A802F0EBFE04A999
:1090A0001FA8012203F07CF91FA916A8FFF71FFBD8
:1090B000D2E704A802F0DEFE0DA82C4A29490123BC
:1090C00003F0F2F80DA802F0E1FE002835D00122ED
:1090D0000DA916A803F064F9254D16A802F0D6FED6
:1090E00040B309F0D9FB294604461FA807F03DFA12
:1090F00016A802F091FE0146684607F036FA694666
:109100001FA807F04BFB0168204607F0AAFC684641
:1091100007F0E0F91FA807F0DDF916A802F0AAFE93
:109120000DA91FA8012203F03BF91FA916A8FFF7FC
:10913000DEFAD2E70DA802F09DFE0E49094803F0C1
:10914000F7F820B109F0A8FB0B4907F08AFC09F0F9
:10915000A3FB0A4907F085FC29B030BD24630C004D
:10916000E5610C00F4DA03202F630C0004620C00AC
:1091700037630C0068630C003E630C004A630C000C
:1091800038B5044604F1180509F086FB144907F0C8
:1091900068FC284602F07AFE10B1284602F06AFE0A
:1091A00010492046FFF7F6FD0F492046FFF7F2FD74
:1091B0000E490F4803F0BCF840B10C490C4803F0CD
:1091C000E1F809F069FB0B4907F04BFC09F064FB7F
:1091D000094907F046FC2046BDE83840FFF7CEBA03
:1091E00053630C00E5610C0004620C0068630C0022
:1091F000F4DA032060630C0073630C0030B500F1F7
:109200001805D3B028460C4602F040FE10B128469F
:1092100002F098FD09A82B490123224603F044F8E7
:1092200009A802F033FE30B909F036FB264907F0F1
:1092300018FC53B030BD09F02FFB2449054612A895
:1092400007F093F9214605A807F08FF905A912A8A0
:1092500007F0A4FA0168284607F003FC05A807F008
:1092600039F912A807F036F94FF4807212A909A84B
:1092700002F0DCFD054638B109F00EFB03682A4612
:10928000DB6812A99847EFE709A802F0F3FD09F09F
:1092900003FB0F49054605A807F067F9214601A819
:1092A00007F063F901A905A807F078FA01682846D4
:1092B00007F0D7FB01A807F00DF905A807F00AF998
:1092C000B7E700BFF4DA03207E630C009A630C005A
:1092D000A6630C00014B00221A70704774D703205C
:1092E0002DE9F04F4B1CADF2844D05460C461CD1C8
:1092F000FFF774FC044609F0CFFA944907F0B1FB7C
:10930000934A944901230BA802F0CEFF0BA802F068
:10931000BDFD064678B909F0BFFA8F4907F0A1FBF9
:1093200030460DF2844DBDE8F08FFFF757FCA042A8
:10933000E1DA2846DCE709F0AFFA0A222146FFF716
:10934000C3F9483509F0A8FA844907F08AFB844933
:1093500000234FF48062284609F024FF07460028C6
:1093600000F0F08009F098FA7E49DFF818A2DFF8E3
:1093700018B207F076FB14A802F042FD4FF0000986
:109380004C4540F3D98001220BA926A803F008F828
:1093900026A914A8FFF7ABF902F078FD074628B913
:1093A00009F07AFA704907F05CFBC9E06F4926A81A
:1093B00007F0DBF814A802F02FFD01461DA807F006
:1093C000D4F81DA926A807F0E9F9014603A807F07B
:1093D00018F91DA807F07EF826A807F07BF809F019
:1093E0005BFA514607F026FB09F056FA039907F09D
:1093F00038FB09F051FA594607F01CFB14A802F09B
:1094000022FD804609F048FA0A2207464146FFF746
:109410005BF9384607F019FB14A802F014FD78B385
:10942000404606F0DBFC1FFA88F20746014614A806
:1094300002F0FCFC09F030FA4D4907F012FB09F08C
:109440002BFA394607F00DFB42463946284609F00B
:10945000FEFD019009F020FA464907F0EBFA09F009
:109460001BFA019B0A2219468046FFF72DF9404658
:1094700007F0EBFA284609F019FE384606F0B6FC6C
:1094800014A802F0F7FC3C4926A807F06EF814A8CF
:1094900002F0C2FC01461DA807F067F81DA926A826
:1094A00007F07CF9014607A807F0ABF81DA807F004
:1094B00011F826A807F00EF81DA8079A25491623CB
:1094C00002F0F2FE1DA802F0E1FC60B32149039A0C
:1094D00026A8012302F0E8FE26A914A8FFF707F941
:1094E0004FF47A7226A914A802F0A0FC024638B103
:1094F00026A91DA802F00EFC1DA802F023FCEFE730
:109500001DA802F0B7FC14A802F0B4FC039911489E
:1095100002F038FF07A806F0DDFF03A806F0DAFF27
:1095200009F101092CE709F0B7F9144907F099FA94
:1095300014A802F09FFCEDE7284609F0E5FF374646
:109540003E46EDE609F0A8F90D492CE7B0630C00A2
:10955000E5610C00F4DA0320EC610C00C5630C003B
:10956000E2630C00EC630C000F640C0030630C0031
:109570005E640C0082640C0038630C009A640C007A
:10958000C2640C0047640C0057640C0038B50446F4
:10959000002500F8045B044906F0E7FFC4E905551F
:1095A000E561204638BD00BF67660C0038B504464B
:1095B00018252A4600210BF02BFC25804FF400755E
:1095C0000649A560284625610AF016FA034960603D
:1095D00028460AF011FAE060204638BD74750C0088
:1095E00010B586B009F058F9164907F03AFA0AF0B2
:1095F000DDF909F0B9FC1824642008F025FB2246A7
:10960000002168460BF004FC0F4B104A01934FF405
:109610008073CDE9032300221146104602936B4666
:10962000ADF8004006F058F90AF0C0F9084909F011
:1096300091FC09F031F9074907F013FA012006B04F
:1096400010BD00BFE7640C008CD703208CD803202A
:10965000A086010013650C0007B5C07D60B10093C2
:10966000074813460A46002100F0F5FF044803B0FE
:109670005DF804EB00F08ABF03B05DF804FB00BFA7
:10968000B4D9032038B5C47D05464CB90A4800F06A
:10969000F5FF044630B909F0FFF8084907F0E1F991
:1096A000204638BD0123EB7500231A464FF6FF71A3
:1096B0002846FFF7D1FFF3E7B4D9032022650C0059
:1096C0002DE9F843384E336805463BB90520FBF7D2
:1096D00098FB044608B100F027FD34600121306892
:1096E00000F0D2FE4FF4FA6008F0AEFA2F480021E5
:1096F00004F08CFC044630B909F0CEF82C4907F090
:10970000B0F92C7034E0294FDFF8B880DFF8B8905A
:109710000026384604F093FE90B309F0BDF84146A8
:1097200007F0A9F90121384604F01CFD642008F077
:109730008BFA66B109F0B0F81E4907F092F9D3210F
:10974000384604F00FFD4FF4FA6008F07DFA00216E
:10975000384604F007FD044668B109F09DF8164943
:1097600007F07FF901232B704FF47A7008F06CFA40
:109770002046BDE8F88309F08FF8494607F071F9F3
:10978000013609F089F80D493246FBF75BFF4FF4CB
:109790007A7008F059FA032EBBD109F07DF8084918
:1097A00007F05FF90024ACE7F0DA0320C0D903200A
:1097B00041650C0083650C009D650C00E7650C009D
:1097C0000C660C0073650C00C5650C0010B510210B
:1097D0000446064804F05FFE20B109F05DF8044934
:1097E00007F03FF900232370012010BDC0D90320EA
:1097F00034660C0010B5037804460BB1FFF7E6FFA2
:10980000642008F021FA237D0BB100232375642026
:1098100008F01AFA637D0BB100236375642008F029
:1098200013FAA37D0BB10023A375642008F00CFA92
:10983000012010BD2DE9F0410B78B0B00546002B9A
:1098400000F0F8807F4CDFF808827F4F7F4E0023C6
:1098500023704146384604F089FE3070002800F03D
:10986000ED802378C8200133237008F0EDF93378B8
:10987000002B00F0E3802378092BEAD9744C75495A
:10988000684606F072FE2068FAF72EFD02460B4687
:1098900004A8714907F03EF804A908A806F0B1FE33
:1098A0006E4908A806F086FF06466068FAF71CFDB8
:1098B00002460B460CA8684907F02CF80CA9304664
:1098C00006F06CFF654906F075FF0646A068FAF7DA
:1098D0000BFD02460B4610A85F4907F01BF810A9C4
:1098E000304606F05BFF5D4906F064FF0646E0681F
:1098F000FAF7FAFC02460B4614A8574907F00AF893
:1099000014A9304606F04AFF544906F053FF0646B4
:109910002069FAF7E9FC02460B4618A84E4906F002
:10992000F9FF18A9304606F039FF4C4906F042FF0E
:1099300006466069FAF7D8FC02460B461CA8464961
:1099400006F0E8FF1CA9304606F028FF434906F060
:1099500031FF0646A069FAF7C7FC02460B4620A86D
:109960003D4906F0D7FF20A9304606F017FF3B49D6
:1099700006F020FF0646E069FAF7B6FC02460B4601
:1099800024A8354906F0C6FF24A9304606F006FF94
:10999000324906F00FFF0646206AFAF7A5FC024698
:1099A0000B4628A82C4906F0B5FF28A9304606F03A
:1099B000F5FE2A4906F0FEFE0646606AFAF794FCB8
:1099C00002460B462CA8244906F0A4FF2CA93046D9
:1099D00006F0E4FE0146684606F004FE2CA806F0F8
:1099E00079FD28A806F076FD24A806F073FD20A8CE
:1099F00006F070FD1CA806F06DFD18A806F06AFDC3
:109A000014A806F067FD10A806F064FD0CA806F087
:109A100061FD08A806F05EFD04A806F05BFD69463E
:109A2000284606F0D4FD684606F054FD284630B0BE
:109A3000BDE8F0810A4906F098FDF7E7002323709E
:109A40001CE700BFB0D90320C0D90320B1D903203F
:109A5000C4DA032067660C0030590C00DD5F0C008F
:109A600052660C0038B50546642008F0EDF809F0A0
:109A70009DFF0146134801F081F9044608F00CFFF0
:109A800011492246FBF7DEFD3CB908F005FF0F49FE
:109A900006F0E7FF2C75204638BD0A4800F0FCFEB2
:109AA000084800F0B4FE642008F0CEF801232B75BE
:109AB0000023C5E9063308F0EFFE054906F0D1FFA3
:109AC000E9E700BF70DA03206A660C0087660C00C5
:109AD0009A660C00002303750120704770B52DEDC8
